{
  "_format": "hh-sol-artifact-1",
  "contractName": "TICTACTOENFT",
  "sourceName": "contracts/TICTACTOENFT.sol",
  "abi": [
    {
      "inputs": [],
      "stateMutability": "nonpayable",
      "type": "constructor"
    },
    {
      "anonymous": false,
      "inputs": [
        {
          "indexed": true,
          "internalType": "address",
          "name": "owner",
          "type": "address"
        },
        {
          "indexed": true,
          "internalType": "address",
          "name": "approved",
          "type": "address"
        },
        {
          "indexed": true,
          "internalType": "uint256",
          "name": "tokenId",
          "type": "uint256"
        }
      ],
      "name": "Approval",
      "type": "event"
    },
    {
      "anonymous": false,
      "inputs": [
        {
          "indexed": true,
          "internalType": "address",
          "name": "owner",
          "type": "address"
        },
        {
          "indexed": true,
          "internalType": "address",
          "name": "operator",
          "type": "address"
        },
        {
          "indexed": false,
          "internalType": "bool",
          "name": "approved",
          "type": "bool"
        }
      ],
      "name": "ApprovalForAll",
      "type": "event"
    },
    {
      "anonymous": false,
      "inputs": [
        {
          "indexed": true,
          "internalType": "address",
          "name": "previousOwner",
          "type": "address"
        },
        {
          "indexed": true,
          "internalType": "address",
          "name": "newOwner",
          "type": "address"
        }
      ],
      "name": "OwnershipTransferred",
      "type": "event"
    },
    {
      "anonymous": false,
      "inputs": [
        {
          "indexed": true,
          "internalType": "address",
          "name": "from",
          "type": "address"
        },
        {
          "indexed": true,
          "internalType": "address",
          "name": "to",
          "type": "address"
        },
        {
          "indexed": true,
          "internalType": "uint256",
          "name": "tokenId",
          "type": "uint256"
        }
      ],
      "name": "Transfer",
      "type": "event"
    },
    {
      "inputs": [
        {
          "internalType": "address",
          "name": "to",
          "type": "address"
        },
        {
          "internalType": "uint256",
          "name": "tokenId",
          "type": "uint256"
        }
      ],
      "name": "approve",
      "outputs": [],
      "stateMutability": "nonpayable",
      "type": "function"
    },
    {
      "inputs": [
        {
          "internalType": "address",
          "name": "owner",
          "type": "address"
        }
      ],
      "name": "balanceOf",
      "outputs": [
        {
          "internalType": "uint256",
          "name": "",
          "type": "uint256"
        }
      ],
      "stateMutability": "view",
      "type": "function"
    },
    {
      "inputs": [
        {
          "internalType": "uint256",
          "name": "tokenId",
          "type": "uint256"
        }
      ],
      "name": "getApproved",
      "outputs": [
        {
          "internalType": "address",
          "name": "",
          "type": "address"
        }
      ],
      "stateMutability": "view",
      "type": "function"
    },
    {
      "inputs": [
        {
          "internalType": "address",
          "name": "owner",
          "type": "address"
        },
        {
          "internalType": "address",
          "name": "operator",
          "type": "address"
        }
      ],
      "name": "isApprovedForAll",
      "outputs": [
        {
          "internalType": "bool",
          "name": "",
          "type": "bool"
        }
      ],
      "stateMutability": "view",
      "type": "function"
    },
    {
      "inputs": [],
      "name": "name",
      "outputs": [
        {
          "internalType": "string",
          "name": "",
          "type": "string"
        }
      ],
      "stateMutability": "view",
      "type": "function"
    },
    {
      "inputs": [],
      "name": "owner",
      "outputs": [
        {
          "internalType": "address",
          "name": "",
          "type": "address"
        }
      ],
      "stateMutability": "view",
      "type": "function"
    },
    {
      "inputs": [
        {
          "internalType": "uint256",
          "name": "tokenId",
          "type": "uint256"
        }
      ],
      "name": "ownerOf",
      "outputs": [
        {
          "internalType": "address",
          "name": "",
          "type": "address"
        }
      ],
      "stateMutability": "view",
      "type": "function"
    },
    {
      "inputs": [],
      "name": "renounceOwnership",
      "outputs": [],
      "stateMutability": "nonpayable",
      "type": "function"
    },
    {
      "inputs": [
        {
          "internalType": "address",
          "name": "to",
          "type": "address"
        },
        {
          "internalType": "uint256",
          "name": "wins_count",
          "type": "uint256"
        },
        {
          "internalType": "bytes32",
          "name": "_h",
          "type": "bytes32"
        },
        {
          "internalType": "bytes",
          "name": "_s",
          "type": "bytes"
        }
      ],
      "name": "safeMint",
      "outputs": [
        {
          "internalType": "uint256",
          "name": "",
          "type": "uint256"
        }
      ],
      "stateMutability": "nonpayable",
      "type": "function"
    },
    {
      "inputs": [
        {
          "internalType": "address",
          "name": "from",
          "type": "address"
        },
        {
          "internalType": "address",
          "name": "to",
          "type": "address"
        },
        {
          "internalType": "uint256",
          "name": "tokenId",
          "type": "uint256"
        }
      ],
      "name": "safeTransferFrom",
      "outputs": [],
      "stateMutability": "nonpayable",
      "type": "function"
    },
    {
      "inputs": [
        {
          "internalType": "address",
          "name": "from",
          "type": "address"
        },
        {
          "internalType": "address",
          "name": "to",
          "type": "address"
        },
        {
          "internalType": "uint256",
          "name": "tokenId",
          "type": "uint256"
        },
        {
          "internalType": "bytes",
          "name": "data",
          "type": "bytes"
        }
      ],
      "name": "safeTransferFrom",
      "outputs": [],
      "stateMutability": "nonpayable",
      "type": "function"
    },
    {
      "inputs": [
        {
          "internalType": "address",
          "name": "operator",
          "type": "address"
        },
        {
          "internalType": "bool",
          "name": "approved",
          "type": "bool"
        }
      ],
      "name": "setApprovalForAll",
      "outputs": [],
      "stateMutability": "nonpayable",
      "type": "function"
    },
    {
      "inputs": [
        {
          "internalType": "bytes4",
          "name": "interfaceId",
          "type": "bytes4"
        }
      ],
      "name": "supportsInterface",
      "outputs": [
        {
          "internalType": "bool",
          "name": "",
          "type": "bool"
        }
      ],
      "stateMutability": "view",
      "type": "function"
    },
    {
      "inputs": [],
      "name": "symbol",
      "outputs": [
        {
          "internalType": "string",
          "name": "",
          "type": "string"
        }
      ],
      "stateMutability": "view",
      "type": "function"
    },
    {
      "inputs": [
        {
          "internalType": "uint256",
          "name": "tokenId",
          "type": "uint256"
        }
      ],
      "name": "tokenURI",
      "outputs": [
        {
          "internalType": "string",
          "name": "",
          "type": "string"
        }
      ],
      "stateMutability": "view",
      "type": "function"
    },
    {
      "inputs": [
        {
          "internalType": "address",
          "name": "from",
          "type": "address"
        },
        {
          "internalType": "address",
          "name": "to",
          "type": "address"
        },
        {
          "internalType": "uint256",
          "name": "tokenId",
          "type": "uint256"
        }
      ],
      "name": "transferFrom",
      "outputs": [],
      "stateMutability": "nonpayable",
      "type": "function"
    },
    {
      "inputs": [
        {
          "internalType": "address",
          "name": "newOwner",
          "type": "address"
        }
      ],
      "name": "transferOwnership",
      "outputs": [],
      "stateMutability": "nonpayable",
      "type": "function"
    }
  ],
  "bytecode": "0x608060405273205d8006383bd92785e29ddaf398d92c65ee7020600960006101000a81548173ffffffffffffffffffffffffffffffffffffffff021916908373ffffffffffffffffffffffffffffffffffffffff1602179055503480156200006657600080fd5b506040518060400160405280600681526020017f5454544e465400000000000000000000000000000000000000000000000000008152506040518060400160405280600381526020017f54544e00000000000000000000000000000000000000000000000000000000008152508160009080519060200190620000eb929190620001fb565b50806001908051906020019062000104929190620001fb565b505050620001276200011b6200012d60201b60201c565b6200013560201b60201c565b62000310565b600033905090565b6000600760009054906101000a900473ffffffffffffffffffffffffffffffffffffffff16905081600760006101000a81548173ffffffffffffffffffffffffffffffffffffffff021916908373ffffffffffffffffffffffffffffffffffffffff1602179055508173ffffffffffffffffffffffffffffffffffffffff168173ffffffffffffffffffffffffffffffffffffffff167f8be0079c531659141344cd1fd0a4f28419497f9722a3daafe3b4186f6b6457e060405160405180910390a35050565b8280546200020990620002da565b90600052602060002090601f0160209004810192826200022d576000855562000279565b82601f106200024857805160ff191683800117855562000279565b8280016001018555821562000279579182015b82811115620002785782518255916020019190600101906200025b565b5b5090506200028891906200028c565b5090565b5b80821115620002a75760008160009055506001016200028d565b5090565b7f4e487b7100000000000000000000000000000000000000000000000000000000600052602260045260246000fd5b60006002820490506001821680620002f357607f821691505b602082108114156200030a5762000309620002ab565b5b50919050565b61361180620003206000396000f3fe608060405234801561001057600080fd5b506004361061010b5760003560e01c806370a08231116100a2578063a22cb46511610071578063a22cb465146102b8578063b88d4fde146102d4578063c87b56dd146102f0578063e985e9c514610320578063f2fde38b146103505761010b565b806370a0823114610242578063715018a6146102725780638da5cb5b1461027c57806395d89b411461029a5761010b565b806323b872dd116100de57806323b872dd146101aa57806342842e0e146101c657806349f708ff146101e25780636352211e146102125761010b565b806301ffc9a71461011057806306fdde0314610140578063081812fc1461015e578063095ea7b31461018e575b600080fd5b61012a60048036038101906101259190612232565b61036c565b604051610137919061227a565b60405180910390f35b61014861044e565b604051610155919061232e565b60405180910390f35b61017860048036038101906101739190612386565b6104e0565b60405161018591906123f4565b60405180910390f35b6101a860048036038101906101a3919061243b565b610526565b005b6101c460048036038101906101bf919061247b565b61063e565b005b6101e060048036038101906101db919061247b565b61069e565b005b6101fc60048036038101906101f79190612639565b6106be565b60405161020991906126cb565b60405180910390f35b61022c60048036038101906102279190612386565b61080e565b60405161023991906123f4565b60405180910390f35b61025c600480360381019061025791906126e6565b610895565b60405161026991906126cb565b60405180910390f35b61027a61094d565b005b610284610961565b60405161029191906123f4565b60405180910390f35b6102a261098b565b6040516102af919061232e565b60405180910390f35b6102d260048036038101906102cd919061273f565b610a1d565b005b6102ee60048036038101906102e9919061277f565b610a33565b005b61030a60048036038101906103059190612386565b610a95565b604051610317919061232e565b60405180910390f35b61033a60048036038101906103359190612802565b610aa7565b604051610347919061227a565b60405180910390f35b61036a600480360381019061036591906126e6565b610b3b565b005b60007f80ac58cd000000000000000000000000000000000000000000000000000000007bffffffffffffffffffffffffffffffffffffffffffffffffffffffff1916827bffffffffffffffffffffffffffffffffffffffffffffffffffffffff1916148061043757507f5b5e139f000000000000000000000000000000000000000000000000000000007bffffffffffffffffffffffffffffffffffffffffffffffffffffffff1916827bffffffffffffffffffffffffffffffffffffffffffffffffffffffff1916145b80610447575061044682610bbf565b5b9050919050565b60606000805461045d90612871565b80601f016020809104026020016040519081016040528092919081815260200182805461048990612871565b80156104d65780601f106104ab576101008083540402835291602001916104d6565b820191906000526020600020905b8154815290600101906020018083116104b957829003601f168201915b5050505050905090565b60006104eb82610c29565b6004600083815260200190815260200160002060009054906101000a900473ffffffffffffffffffffffffffffffffffffffff169050919050565b60006105318261080e565b90508073ffffffffffffffffffffffffffffffffffffffff168373ffffffffffffffffffffffffffffffffffffffff1614156105a2576040517f08c379a000000000000000000000000000000000000000000000000000000000815260040161059990612915565b60405180910390fd5b8073ffffffffffffffffffffffffffffffffffffffff166105c1610c74565b73ffffffffffffffffffffffffffffffffffffffff1614806105f057506105ef816105ea610c74565b610aa7565b5b61062f576040517f08c379a0000000000000000000000000000000000000000000000000000000008152600401610626906129a7565b60405180910390fd5b6106398383610c7c565b505050565b61064f610649610c74565b82610d35565b61068e576040517f08c379a000000000000000000000000000000000000000000000000000000000815260040161068590612a39565b60405180910390fd5b610699838383610dca565b505050565b6106b983838360405180602001604052806000815250610a33565b505050565b60006106ca83836110c4565b610709576040517f08c379a000000000000000000000000000000000000000000000000000000000815260040161070090612acb565b60405180910390fd5b60058414806107185750600a84145b61072157600080fd5b61072b600861115b565b3373ffffffffffffffffffffffffffffffffffffffff168573ffffffffffffffffffffffffffffffffffffffff1614610799576040517f08c379a000000000000000000000000000000000000000000000000000000000815260040161079090612b5d565b60405180910390fd5b60006040518060600160405280603681526020016135a660369139905060006107c26008611171565b90506107ce878261117f565b61080181836107dc8961139d565b6040516020016107ed929190612bb9565b604051602081830303815290604052611475565b8092505050949350505050565b60008061081a836114e9565b9050600073ffffffffffffffffffffffffffffffffffffffff168173ffffffffffffffffffffffffffffffffffffffff16141561088c576040517f08c379a000000000000000000000000000000000000000000000000000000000815260040161088390612c29565b60405180910390fd5b80915050919050565b60008073ffffffffffffffffffffffffffffffffffffffff168273ffffffffffffffffffffffffffffffffffffffff161415610906576040517f08c379a00000000000000000000000000000000000000000000000000000000081526004016108fd90612cbb565b60405180910390fd5b600360008373ffffffffffffffffffffffffffffffffffffffff1673ffffffffffffffffffffffffffffffffffffffff168152602001908152602001600020549050919050565b610955611526565b61095f60006115a4565b565b6000600760009054906101000a900473ffffffffffffffffffffffffffffffffffffffff16905090565b60606001805461099a90612871565b80601f01602080910402602001604051908101604052809291908181526020018280546109c690612871565b8015610a135780601f106109e857610100808354040283529160200191610a13565b820191906000526020600020905b8154815290600101906020018083116109f657829003601f168201915b5050505050905090565b610a2f610a28610c74565b838361166a565b5050565b610a44610a3e610c74565b83610d35565b610a83576040517f08c379a0000000000000000000000000000000000000000000000000000000008152600401610a7a90612a39565b60405180910390fd5b610a8f848484846117d7565b50505050565b6060610aa082611833565b9050919050565b6000600560008473ffffffffffffffffffffffffffffffffffffffff1673ffffffffffffffffffffffffffffffffffffffff16815260200190815260200160002060008373ffffffffffffffffffffffffffffffffffffffff1673ffffffffffffffffffffffffffffffffffffffff16815260200190815260200160002060009054906101000a900460ff16905092915050565b610b43611526565b600073ffffffffffffffffffffffffffffffffffffffff168173ffffffffffffffffffffffffffffffffffffffff161415610bb3576040517f08c379a0000000000000000000000000000000000000000000000000000000008152600401610baa90612d4d565b60405180910390fd5b610bbc816115a4565b50565b60007f01ffc9a7000000000000000000000000000000000000000000000000000000007bffffffffffffffffffffffffffffffffffffffffffffffffffffffff1916827bffffffffffffffffffffffffffffffffffffffffffffffffffffffff1916149050919050565b610c3281611946565b610c71576040517f08c379a0000000000000000000000000000000000000000000000000000000008152600401610c6890612c29565b60405180910390fd5b50565b600033905090565b816004600083815260200190815260200160002060006101000a81548173ffffffffffffffffffffffffffffffffffffffff021916908373ffffffffffffffffffffffffffffffffffffffff160217905550808273ffffffffffffffffffffffffffffffffffffffff16610cef8361080e565b73ffffffffffffffffffffffffffffffffffffffff167f8c5be1e5ebec7d5bd14f71427d1e84f3dd0314c0f7b2291e5b200ac8c7c3b92560405160405180910390a45050565b600080610d418361080e565b90508073ffffffffffffffffffffffffffffffffffffffff168473ffffffffffffffffffffffffffffffffffffffff161480610d835750610d828185610aa7565b5b80610dc157508373ffffffffffffffffffffffffffffffffffffffff16610da9846104e0565b73ffffffffffffffffffffffffffffffffffffffff16145b91505092915050565b8273ffffffffffffffffffffffffffffffffffffffff16610dea8261080e565b73ffffffffffffffffffffffffffffffffffffffff1614610e40576040517f08c379a0000000000000000000000000000000000000000000000000000000008152600401610e3790612ddf565b60405180910390fd5b600073ffffffffffffffffffffffffffffffffffffffff168273ffffffffffffffffffffffffffffffffffffffff161415610eb0576040517f08c379a0000000000000000000000000000000000000000000000000000000008152600401610ea790612e71565b60405180910390fd5b610ebd8383836001611987565b8273ffffffffffffffffffffffffffffffffffffffff16610edd8261080e565b73ffffffffffffffffffffffffffffffffffffffff1614610f33576040517f08c379a0000000000000000000000000000000000000000000000000000000008152600401610f2a90612ddf565b60405180910390fd5b6004600082815260200190815260200160002060006101000a81549073ffffffffffffffffffffffffffffffffffffffff02191690556001600360008573ffffffffffffffffffffffffffffffffffffffff1673ffffffffffffffffffffffffffffffffffffffff168152602001908152602001600020600082825403925050819055506001600360008473ffffffffffffffffffffffffffffffffffffffff1673ffffffffffffffffffffffffffffffffffffffff16815260200190815260200160002060008282540192505081905550816002600083815260200190815260200160002060006101000a81548173ffffffffffffffffffffffffffffffffffffffff021916908373ffffffffffffffffffffffffffffffffffffffff160217905550808273ffffffffffffffffffffffffffffffffffffffff168473ffffffffffffffffffffffffffffffffffffffff167fddf252ad1be2c89b69c2b068fc378daa952ba7f163c4a11628f55a4df523b3ef60405160405180910390a46110bf8383836001611aad565b505050565b6000806000806110d385611ab3565b92509250925060006110e787838686611b1b565b9050600960009054906101000a900473ffffffffffffffffffffffffffffffffffffffff1673ffffffffffffffffffffffffffffffffffffffff168173ffffffffffffffffffffffffffffffffffffffff16141561114c576001945050505050611155565b60009450505050505b92915050565b6001816000016000828254019250508190555050565b600081600001549050919050565b600073ffffffffffffffffffffffffffffffffffffffff168273ffffffffffffffffffffffffffffffffffffffff1614156111ef576040517f08c379a00000000000000000000000000000000000000000000000000000000081526004016111e690612edd565b60405180910390fd5b6111f881611946565b15611238576040517f08c379a000000000000000000000000000000000000000000000000000000000815260040161122f90612f49565b60405180910390fd5b611246600083836001611987565b61124f81611946565b1561128f576040517f08c379a000000000000000000000000000000000000000000000000000000000815260040161128690612f49565b60405180910390fd5b6001600360008473ffffffffffffffffffffffffffffffffffffffff1673ffffffffffffffffffffffffffffffffffffffff16815260200190815260200160002060008282540192505081905550816002600083815260200190815260200160002060006101000a81548173ffffffffffffffffffffffffffffffffffffffff021916908373ffffffffffffffffffffffffffffffffffffffff160217905550808273ffffffffffffffffffffffffffffffffffffffff16600073ffffffffffffffffffffffffffffffffffffffff167fddf252ad1be2c89b69c2b068fc378daa952ba7f163c4a11628f55a4df523b3ef60405160405180910390a4611399600083836001611aad565b5050565b6060600060016113ac84611b46565b01905060008167ffffffffffffffff8111156113cb576113ca61250e565b5b6040519080825280601f01601f1916602001820160405280156113fd5781602001600182028036833780820191505090505b509050600082602001820190505b60011561146a578080600190039150507f3031323334353637383961626364656600000000000000000000000000000000600a86061a8153600a858161145457611453612f69565b5b04945060008514156114655761146a565b61140b565b819350505050919050565b61147e82611946565b6114bd576040517f08c379a00000000000000000000000000000000000000000000000000000000081526004016114b49061300a565b60405180910390fd5b806006600084815260200190815260200160002090805190602001906114e4929190612123565b505050565b60006002600083815260200190815260200160002060009054906101000a900473ffffffffffffffffffffffffffffffffffffffff169050919050565b61152e610c74565b73ffffffffffffffffffffffffffffffffffffffff1661154c610961565b73ffffffffffffffffffffffffffffffffffffffff16146115a2576040517f08c379a000000000000000000000000000000000000000000000000000000000815260040161159990613076565b60405180910390fd5b565b6000600760009054906101000a900473ffffffffffffffffffffffffffffffffffffffff16905081600760006101000a81548173ffffffffffffffffffffffffffffffffffffffff021916908373ffffffffffffffffffffffffffffffffffffffff1602179055508173ffffffffffffffffffffffffffffffffffffffff168173ffffffffffffffffffffffffffffffffffffffff167f8be0079c531659141344cd1fd0a4f28419497f9722a3daafe3b4186f6b6457e060405160405180910390a35050565b8173ffffffffffffffffffffffffffffffffffffffff168373ffffffffffffffffffffffffffffffffffffffff1614156116d9576040517f08c379a00000000000000000000000000000000000000000000000000000000081526004016116d0906130e2565b60405180910390fd5b80600560008573ffffffffffffffffffffffffffffffffffffffff1673ffffffffffffffffffffffffffffffffffffffff16815260200190815260200160002060008473ffffffffffffffffffffffffffffffffffffffff1673ffffffffffffffffffffffffffffffffffffffff16815260200190815260200160002060006101000a81548160ff0219169083151502179055508173ffffffffffffffffffffffffffffffffffffffff168373ffffffffffffffffffffffffffffffffffffffff167f17307eab39ab6107e8899845ad3d59bd9653f200f220920489ca2b5937696c31836040516117ca919061227a565b60405180910390a3505050565b6117e2848484610dca565b6117ee84848484611c99565b61182d576040517f08c379a000000000000000000000000000000000000000000000000000000000815260040161182490613174565b60405180910390fd5b50505050565b606061183e82610c29565b600060066000848152602001908152602001600020805461185e90612871565b80601f016020809104026020016040519081016040528092919081815260200182805461188a90612871565b80156118d75780601f106118ac576101008083540402835291602001916118d7565b820191906000526020600020905b8154815290600101906020018083116118ba57829003601f168201915b5050505050905060006118e8611e30565b90506000815114156118fe578192505050611941565b60008251111561193357808260405160200161191b929190612bb9565b60405160208183030381529060405292505050611941565b61193c84611e47565b925050505b919050565b60008073ffffffffffffffffffffffffffffffffffffffff16611968836114e9565b73ffffffffffffffffffffffffffffffffffffffff1614159050919050565b6001811115611aa757600073ffffffffffffffffffffffffffffffffffffffff168473ffffffffffffffffffffffffffffffffffffffff1614611a1b5780600360008673ffffffffffffffffffffffffffffffffffffffff1673ffffffffffffffffffffffffffffffffffffffff1681526020019081526020016000206000828254611a1391906131c3565b925050819055505b600073ffffffffffffffffffffffffffffffffffffffff168373ffffffffffffffffffffffffffffffffffffffff1614611aa65780600360008573ffffffffffffffffffffffffffffffffffffffff1673ffffffffffffffffffffffffffffffffffffffff1681526020019081526020016000206000828254611a9e91906131f7565b925050819055505b5b50505050565b50505050565b60008060006041845114611afc576040517f08c379a0000000000000000000000000000000000000000000000000000000008152600401611af390613299565b60405180910390fd5b6020840151925060408401519150606084015160001a90509193909250565b6000806000611b2c87878787611eaf565b91509150611b3981611f92565b8192505050949350505050565b600080600090507a184f03e93ff9f4daa797ed6e38ed64bf6a1f0100000000000000008310611ba4577a184f03e93ff9f4daa797ed6e38ed64bf6a1f0100000000000000008381611b9a57611b99612f69565b5b0492506040810190505b6d04ee2d6d415b85acef81000000008310611be1576d04ee2d6d415b85acef81000000008381611bd757611bd6612f69565b5b0492506020810190505b662386f26fc100008310611c1057662386f26fc100008381611c0657611c05612f69565b5b0492506010810190505b6305f5e1008310611c39576305f5e1008381611c2f57611c2e612f69565b5b0492506008810190505b6127108310611c5e576127108381611c5457611c53612f69565b5b0492506004810190505b60648310611c815760648381611c7757611c76612f69565b5b0492506002810190505b600a8310611c90576001810190505b80915050919050565b6000611cba8473ffffffffffffffffffffffffffffffffffffffff16612100565b15611e23578373ffffffffffffffffffffffffffffffffffffffff1663150b7a02611ce3610c74565b8786866040518563ffffffff1660e01b8152600401611d05949392919061330e565b602060405180830381600087803b158015611d1f57600080fd5b505af1925050508015611d5057506040513d601f19601f82011682018060405250810190611d4d919061336f565b60015b611dd3573d8060008114611d80576040519150601f19603f3d011682016040523d82523d6000602084013e611d85565b606091505b50600081511415611dcb576040517f08c379a0000000000000000000000000000000000000000000000000000000008152600401611dc290613174565b60405180910390fd5b805181602001fd5b63150b7a0260e01b7bffffffffffffffffffffffffffffffffffffffffffffffffffffffff1916817bffffffffffffffffffffffffffffffffffffffffffffffffffffffff191614915050611e28565b600190505b949350505050565b606060405180602001604052806000815250905090565b6060611e5282610c29565b6000611e5c611e30565b90506000815111611e7c5760405180602001604052806000815250611ea7565b80611e868461139d565b604051602001611e97929190612bb9565b6040516020818303038152906040525b915050919050565b6000807f7fffffffffffffffffffffffffffffff5d576e7357a4501ddfe92f46681b20a08360001c1115611eea576000600391509150611f89565b600060018787878760405160008152602001604052604051611f0f94939291906133c7565b6020604051602081039080840390855afa158015611f31573d6000803e3d6000fd5b505050602060405103519050600073ffffffffffffffffffffffffffffffffffffffff168173ffffffffffffffffffffffffffffffffffffffff161415611f8057600060019250925050611f89565b80600092509250505b94509492505050565b60006004811115611fa657611fa561340c565b5b816004811115611fb957611fb861340c565b5b1415611fc4576120fd565b60016004811115611fd857611fd761340c565b5b816004811115611feb57611fea61340c565b5b141561202c576040517f08c379a000000000000000000000000000000000000000000000000000000000815260040161202390613487565b60405180910390fd5b600260048111156120405761203f61340c565b5b8160048111156120535761205261340c565b5b1415612094576040517f08c379a000000000000000000000000000000000000000000000000000000000815260040161208b906134f3565b60405180910390fd5b600360048111156120a8576120a761340c565b5b8160048111156120bb576120ba61340c565b5b14156120fc576040517f08c379a00000000000000000000000000000000000000000000000000000000081526004016120f390613585565b60405180910390fd5b5b50565b6000808273ffffffffffffffffffffffffffffffffffffffff163b119050919050565b82805461212f90612871565b90600052602060002090601f0160209004810192826121515760008555612198565b82601f1061216a57805160ff1916838001178555612198565b82800160010185558215612198579182015b8281111561219757825182559160200191906001019061217c565b5b5090506121a591906121a9565b5090565b5b808211156121c25760008160009055506001016121aa565b5090565b6000604051905090565b600080fd5b600080fd5b60007fffffffff0000000000000000000000000000000000000000000000000000000082169050919050565b61220f816121da565b811461221a57600080fd5b50565b60008135905061222c81612206565b92915050565b600060208284031215612248576122476121d0565b5b60006122568482850161221d565b91505092915050565b60008115159050919050565b6122748161225f565b82525050565b600060208201905061228f600083018461226b565b92915050565b600081519050919050565b600082825260208201905092915050565b60005b838110156122cf5780820151818401526020810190506122b4565b838111156122de576000848401525b50505050565b6000601f19601f8301169050919050565b600061230082612295565b61230a81856122a0565b935061231a8185602086016122b1565b612323816122e4565b840191505092915050565b6000602082019050818103600083015261234881846122f5565b905092915050565b6000819050919050565b61236381612350565b811461236e57600080fd5b50565b6000813590506123808161235a565b92915050565b60006020828403121561239c5761239b6121d0565b5b60006123aa84828501612371565b91505092915050565b600073ffffffffffffffffffffffffffffffffffffffff82169050919050565b60006123de826123b3565b9050919050565b6123ee816123d3565b82525050565b600060208201905061240960008301846123e5565b92915050565b612418816123d3565b811461242357600080fd5b50565b6000813590506124358161240f565b92915050565b60008060408385031215612452576124516121d0565b5b600061246085828601612426565b925050602061247185828601612371565b9150509250929050565b600080600060608486031215612494576124936121d0565b5b60006124a286828701612426565b93505060206124b386828701612426565b92505060406124c486828701612371565b9150509250925092565b6000819050919050565b6124e1816124ce565b81146124ec57600080fd5b50565b6000813590506124fe816124d8565b92915050565b600080fd5b600080fd5b7f4e487b7100000000000000000000000000000000000000000000000000000000600052604160045260246000fd5b612546826122e4565b810181811067ffffffffffffffff821117156125655761256461250e565b5b80604052505050565b60006125786121c6565b9050612584828261253d565b919050565b600067ffffffffffffffff8211156125a4576125a361250e565b5b6125ad826122e4565b9050602081019050919050565b82818337600083830152505050565b60006125dc6125d784612589565b61256e565b9050828152602081018484840111156125f8576125f7612509565b5b6126038482856125ba565b509392505050565b600082601f8301126126205761261f612504565b5b81356126308482602086016125c9565b91505092915050565b60008060008060808587031215612653576126526121d0565b5b600061266187828801612426565b945050602061267287828801612371565b9350506040612683878288016124ef565b925050606085013567ffffffffffffffff8111156126a4576126a36121d5565b5b6126b08782880161260b565b91505092959194509250565b6126c581612350565b82525050565b60006020820190506126e060008301846126bc565b92915050565b6000602082840312156126fc576126fb6121d0565b5b600061270a84828501612426565b91505092915050565b61271c8161225f565b811461272757600080fd5b50565b60008135905061273981612713565b92915050565b60008060408385031215612756576127556121d0565b5b600061276485828601612426565b92505060206127758582860161272a565b9150509250929050565b60008060008060808587031215612799576127986121d0565b5b60006127a787828801612426565b94505060206127b887828801612426565b93505060406127c987828801612371565b925050606085013567ffffffffffffffff8111156127ea576127e96121d5565b5b6127f68782880161260b565b91505092959194509250565b60008060408385031215612819576128186121d0565b5b600061282785828601612426565b925050602061283885828601612426565b9150509250929050565b7f4e487b7100000000000000000000000000000000000000000000000000000000600052602260045260246000fd5b6000600282049050600182168061288957607f821691505b6020821081141561289d5761289c612842565b5b50919050565b7f4552433732313a20617070726f76616c20746f2063757272656e74206f776e6560008201527f7200000000000000000000000000000000000000000000000000000000000000602082015250565b60006128ff6021836122a0565b915061290a826128a3565b604082019050919050565b6000602082019050818103600083015261292e816128f2565b9050919050565b7f4552433732313a20617070726f76652063616c6c6572206973206e6f7420746f60008201527f6b656e206f776e6572206f7220617070726f76656420666f7220616c6c000000602082015250565b6000612991603d836122a0565b915061299c82612935565b604082019050919050565b600060208201905081810360008301526129c081612984565b9050919050565b7f4552433732313a2063616c6c6572206973206e6f7420746f6b656e206f776e6560008201527f72206f7220617070726f76656400000000000000000000000000000000000000602082015250565b6000612a23602d836122a0565b9150612a2e826129c7565b604082019050919050565b60006020820190508181036000830152612a5281612a16565b9050919050565b7f596f7520617265206e6f7420616c6c6f77656420746f2061636365737320746860008201527f697320636f6e7472616374000000000000000000000000000000000000000000602082015250565b6000612ab5602b836122a0565b9150612ac082612a59565b604082019050919050565b60006020820190508181036000830152612ae481612aa8565b9050919050565b7f4f6e6c7920746865206f776e6572206f6620746865204e46542063616e206d6960008201527f6e742061206e6577206f6e650000000000000000000000000000000000000000602082015250565b6000612b47602c836122a0565b9150612b5282612aeb565b604082019050919050565b60006020820190508181036000830152612b7681612b3a565b9050919050565b600081905092915050565b6000612b9382612295565b612b9d8185612b7d565b9350612bad8185602086016122b1565b80840191505092915050565b6000612bc58285612b88565b9150612bd18284612b88565b91508190509392505050565b7f4552433732313a20696e76616c696420746f6b656e2049440000000000000000600082015250565b6000612c136018836122a0565b9150612c1e82612bdd565b602082019050919050565b60006020820190508181036000830152612c4281612c06565b9050919050565b7f4552433732313a2061646472657373207a65726f206973206e6f74206120766160008201527f6c6964206f776e65720000000000000000000000000000000000000000000000602082015250565b6000612ca56029836122a0565b9150612cb082612c49565b604082019050919050565b60006020820190508181036000830152612cd481612c98565b9050919050565b7f4f776e61626c653a206e6577206f776e657220697320746865207a65726f206160008201527f6464726573730000000000000000000000000000000000000000000000000000602082015250565b6000612d376026836122a0565b9150612d4282612cdb565b604082019050919050565b60006020820190508181036000830152612d6681612d2a565b9050919050565b7f4552433732313a207472616e736665722066726f6d20696e636f72726563742060008201527f6f776e6572000000000000000000000000000000000000000000000000000000602082015250565b6000612dc96025836122a0565b9150612dd482612d6d565b604082019050919050565b60006020820190508181036000830152612df881612dbc565b9050919050565b7f4552433732313a207472616e7366657220746f20746865207a65726f2061646460008201527f7265737300000000000000000000000000000000000000000000000000000000602082015250565b6000612e5b6024836122a0565b9150612e6682612dff565b604082019050919050565b60006020820190508181036000830152612e8a81612e4e565b9050919050565b7f4552433732313a206d696e7420746f20746865207a65726f2061646472657373600082015250565b6000612ec76020836122a0565b9150612ed282612e91565b602082019050919050565b60006020820190508181036000830152612ef681612eba565b9050919050565b7f4552433732313a20746f6b656e20616c7265616479206d696e74656400000000600082015250565b6000612f33601c836122a0565b9150612f3e82612efd565b602082019050919050565b60006020820190508181036000830152612f6281612f26565b9050919050565b7f4e487b7100000000000000000000000000000000000000000000000000000000600052601260045260246000fd5b7f45524337323155524953746f726167653a2055524920736574206f66206e6f6e60008201527f6578697374656e7420746f6b656e000000000000000000000000000000000000602082015250565b6000612ff4602e836122a0565b9150612fff82612f98565b604082019050919050565b6000602082019050818103600083015261302381612fe7565b9050919050565b7f4f776e61626c653a2063616c6c6572206973206e6f7420746865206f776e6572600082015250565b60006130606020836122a0565b915061306b8261302a565b602082019050919050565b6000602082019050818103600083015261308f81613053565b9050919050565b7f4552433732313a20617070726f766520746f2063616c6c657200000000000000600082015250565b60006130cc6019836122a0565b91506130d782613096565b602082019050919050565b600060208201905081810360008301526130fb816130bf565b9050919050565b7f4552433732313a207472616e7366657220746f206e6f6e20455243373231526560008201527f63656976657220696d706c656d656e7465720000000000000000000000000000602082015250565b600061315e6032836122a0565b915061316982613102565b604082019050919050565b6000602082019050818103600083015261318d81613151565b9050919050565b7f4e487b7100000000000000000000000000000000000000000000000000000000600052601160045260246000fd5b60006131ce82612350565b91506131d983612350565b9250828210156131ec576131eb613194565b5b828203905092915050565b600061320282612350565b915061320d83612350565b9250827fffffffffffffffffffffffffffffffffffffffffffffffffffffffffffffffff0382111561324257613241613194565b5b828201905092915050565b7f696e76616c6964207369676e6174757265206c656e6774680000000000000000600082015250565b60006132836018836122a0565b915061328e8261324d565b602082019050919050565b600060208201905081810360008301526132b281613276565b9050919050565b600081519050919050565b600082825260208201905092915050565b60006132e0826132b9565b6132ea81856132c4565b93506132fa8185602086016122b1565b613303816122e4565b840191505092915050565b600060808201905061332360008301876123e5565b61333060208301866123e5565b61333d60408301856126bc565b818103606083015261334f81846132d5565b905095945050505050565b60008151905061336981612206565b92915050565b600060208284031215613385576133846121d0565b5b60006133938482850161335a565b91505092915050565b6133a5816124ce565b82525050565b600060ff82169050919050565b6133c1816133ab565b82525050565b60006080820190506133dc600083018761339c565b6133e960208301866133b8565b6133f6604083018561339c565b613403606083018461339c565b95945050505050565b7f4e487b7100000000000000000000000000000000000000000000000000000000600052602160045260246000fd5b7f45434453413a20696e76616c6964207369676e61747572650000000000000000600082015250565b60006134716018836122a0565b915061347c8261343b565b602082019050919050565b600060208201905081810360008301526134a081613464565b9050919050565b7f45434453413a20696e76616c6964207369676e6174757265206c656e67746800600082015250565b60006134dd601f836122a0565b91506134e8826134a7565b602082019050919050565b6000602082019050818103600083015261350c816134d0565b9050919050565b7f45434453413a20696e76616c6964207369676e6174757265202773272076616c60008201527f7565000000000000000000000000000000000000000000000000000000000000602082015250565b600061356f6022836122a0565b915061357a82613513565b604082019050919050565b6000602082019050818103600083015261359e81613562565b905091905056fe697066733a2f2f516d665932765731416f544a6e65446b526e7173474e6d4c6765726a326b6f5a5251634b665856474371744463512fa2646970667358221220636a18ea373688b8212340a0fdaed208231dd269d8977d741f1fef70f7396c5e64736f6c63430008090033",
  "linkReferences": {},
  "deployedLinkReferences": {}
}