{
  "_format": "hh-sol-artifact-1",
  "contractName": "TICTACTOENFT",
  "sourceName": "contracts/TICTACTOENFT.sol",
  "abi": [
    {
      "inputs": [],
      "stateMutability": "nonpayable",
      "type": "constructor"
    },
    {
      "anonymous": false,
      "inputs": [
        {
          "indexed": true,
          "internalType": "address",
          "name": "owner",
          "type": "address"
        },
        {
          "indexed": true,
          "internalType": "address",
          "name": "approved",
          "type": "address"
        },
        {
          "indexed": true,
          "internalType": "uint256",
          "name": "tokenId",
          "type": "uint256"
        }
      ],
      "name": "Approval",
      "type": "event"
    },
    {
      "anonymous": false,
      "inputs": [
        {
          "indexed": true,
          "internalType": "address",
          "name": "owner",
          "type": "address"
        },
        {
          "indexed": true,
          "internalType": "address",
          "name": "operator",
          "type": "address"
        },
        {
          "indexed": false,
          "internalType": "bool",
          "name": "approved",
          "type": "bool"
        }
      ],
      "name": "ApprovalForAll",
      "type": "event"
    },
    {
      "anonymous": false,
      "inputs": [
        {
          "indexed": true,
          "internalType": "address",
          "name": "previousOwner",
          "type": "address"
        },
        {
          "indexed": true,
          "internalType": "address",
          "name": "newOwner",
          "type": "address"
        }
      ],
      "name": "OwnershipTransferred",
      "type": "event"
    },
    {
      "anonymous": false,
      "inputs": [
        {
          "indexed": true,
          "internalType": "address",
          "name": "from",
          "type": "address"
        },
        {
          "indexed": true,
          "internalType": "address",
          "name": "to",
          "type": "address"
        },
        {
          "indexed": true,
          "internalType": "uint256",
          "name": "tokenId",
          "type": "uint256"
        }
      ],
      "name": "Transfer",
      "type": "event"
    },
    {
      "inputs": [
        {
          "internalType": "address",
          "name": "to",
          "type": "address"
        },
        {
          "internalType": "uint256",
          "name": "tokenId",
          "type": "uint256"
        }
      ],
      "name": "approve",
      "outputs": [],
      "stateMutability": "nonpayable",
      "type": "function"
    },
    {
      "inputs": [
        {
          "internalType": "address",
          "name": "owner",
          "type": "address"
        }
      ],
      "name": "balanceOf",
      "outputs": [
        {
          "internalType": "uint256",
          "name": "",
          "type": "uint256"
        }
      ],
      "stateMutability": "view",
      "type": "function"
    },
    {
      "inputs": [
        {
          "internalType": "uint256",
          "name": "tokenId",
          "type": "uint256"
        }
      ],
      "name": "getApproved",
      "outputs": [
        {
          "internalType": "address",
          "name": "",
          "type": "address"
        }
      ],
      "stateMutability": "view",
      "type": "function"
    },
    {
      "inputs": [
        {
          "internalType": "address",
          "name": "owner",
          "type": "address"
        },
        {
          "internalType": "address",
          "name": "operator",
          "type": "address"
        }
      ],
      "name": "isApprovedForAll",
      "outputs": [
        {
          "internalType": "bool",
          "name": "",
          "type": "bool"
        }
      ],
      "stateMutability": "view",
      "type": "function"
    },
    {
      "inputs": [],
      "name": "name",
      "outputs": [
        {
          "internalType": "string",
          "name": "",
          "type": "string"
        }
      ],
      "stateMutability": "view",
      "type": "function"
    },
    {
      "inputs": [],
      "name": "owner",
      "outputs": [
        {
          "internalType": "address",
          "name": "",
          "type": "address"
        }
      ],
      "stateMutability": "view",
      "type": "function"
    },
    {
      "inputs": [
        {
          "internalType": "uint256",
          "name": "tokenId",
          "type": "uint256"
        }
      ],
      "name": "ownerOf",
      "outputs": [
        {
          "internalType": "address",
          "name": "",
          "type": "address"
        }
      ],
      "stateMutability": "view",
      "type": "function"
    },
    {
      "inputs": [],
      "name": "renounceOwnership",
      "outputs": [],
      "stateMutability": "nonpayable",
      "type": "function"
    },
    {
      "inputs": [
        {
          "internalType": "address",
          "name": "to",
          "type": "address"
        },
        {
          "internalType": "uint256",
          "name": "wins_count",
          "type": "uint256"
        },
        {
          "internalType": "bytes32",
          "name": "_h",
          "type": "bytes32"
        },
        {
          "internalType": "bytes",
          "name": "_s",
          "type": "bytes"
        }
      ],
      "name": "safeMint",
      "outputs": [
        {
          "internalType": "uint256",
          "name": "",
          "type": "uint256"
        }
      ],
      "stateMutability": "nonpayable",
      "type": "function"
    },
    {
      "inputs": [
        {
          "internalType": "address",
          "name": "from",
          "type": "address"
        },
        {
          "internalType": "address",
          "name": "to",
          "type": "address"
        },
        {
          "internalType": "uint256",
          "name": "tokenId",
          "type": "uint256"
        }
      ],
      "name": "safeTransferFrom",
      "outputs": [],
      "stateMutability": "nonpayable",
      "type": "function"
    },
    {
      "inputs": [
        {
          "internalType": "address",
          "name": "from",
          "type": "address"
        },
        {
          "internalType": "address",
          "name": "to",
          "type": "address"
        },
        {
          "internalType": "uint256",
          "name": "tokenId",
          "type": "uint256"
        },
        {
          "internalType": "bytes",
          "name": "data",
          "type": "bytes"
        }
      ],
      "name": "safeTransferFrom",
      "outputs": [],
      "stateMutability": "nonpayable",
      "type": "function"
    },
    {
      "inputs": [
        {
          "internalType": "address",
          "name": "operator",
          "type": "address"
        },
        {
          "internalType": "bool",
          "name": "approved",
          "type": "bool"
        }
      ],
      "name": "setApprovalForAll",
      "outputs": [],
      "stateMutability": "nonpayable",
      "type": "function"
    },
    {
      "inputs": [
        {
          "internalType": "bytes4",
          "name": "interfaceId",
          "type": "bytes4"
        }
      ],
      "name": "supportsInterface",
      "outputs": [
        {
          "internalType": "bool",
          "name": "",
          "type": "bool"
        }
      ],
      "stateMutability": "view",
      "type": "function"
    },
    {
      "inputs": [],
      "name": "symbol",
      "outputs": [
        {
          "internalType": "string",
          "name": "",
          "type": "string"
        }
      ],
      "stateMutability": "view",
      "type": "function"
    },
    {
      "inputs": [
        {
          "internalType": "uint256",
          "name": "tokenId",
          "type": "uint256"
        }
      ],
      "name": "tokenURI",
      "outputs": [
        {
          "internalType": "string",
          "name": "",
          "type": "string"
        }
      ],
      "stateMutability": "view",
      "type": "function"
    },
    {
      "inputs": [
        {
          "internalType": "address",
          "name": "from",
          "type": "address"
        },
        {
          "internalType": "address",
          "name": "to",
          "type": "address"
        },
        {
          "internalType": "uint256",
          "name": "tokenId",
          "type": "uint256"
        }
      ],
      "name": "transferFrom",
      "outputs": [],
      "stateMutability": "nonpayable",
      "type": "function"
    },
    {
      "inputs": [
        {
          "internalType": "address",
          "name": "newOwner",
          "type": "address"
        }
      ],
      "name": "transferOwnership",
      "outputs": [],
      "stateMutability": "nonpayable",
      "type": "function"
    }
  ],
  "bytecode": "0x608060405273205d8006383bd92785e29ddaf398d92c65ee7020600960006101000a81548173ffffffffffffffffffffffffffffffffffffffff021916908373ffffffffffffffffffffffffffffffffffffffff1602179055503480156200006657600080fd5b506040518060400160405280600681526020017f5454544e465400000000000000000000000000000000000000000000000000008152506040518060400160405280600381526020017f54544e00000000000000000000000000000000000000000000000000000000008152508160009080519060200190620000eb929190620001fb565b50806001908051906020019062000104929190620001fb565b505050620001276200011b6200012d60201b60201c565b6200013560201b60201c565b62000310565b600033905090565b6000600760009054906101000a900473ffffffffffffffffffffffffffffffffffffffff16905081600760006101000a81548173ffffffffffffffffffffffffffffffffffffffff021916908373ffffffffffffffffffffffffffffffffffffffff1602179055508173ffffffffffffffffffffffffffffffffffffffff168173ffffffffffffffffffffffffffffffffffffffff167f8be0079c531659141344cd1fd0a4f28419497f9722a3daafe3b4186f6b6457e060405160405180910390a35050565b8280546200020990620002da565b90600052602060002090601f0160209004810192826200022d576000855562000279565b82601f106200024857805160ff191683800117855562000279565b8280016001018555821562000279579182015b82811115620002785782518255916020019190600101906200025b565b5b5090506200028891906200028c565b5090565b5b80821115620002a75760008160009055506001016200028d565b5090565b7f4e487b7100000000000000000000000000000000000000000000000000000000600052602260045260246000fd5b60006002820490506001821680620002f357607f821691505b602082108114156200030a5762000309620002ab565b5b50919050565b61313f80620003206000396000f3fe608060405234801561001057600080fd5b506004361061010b5760003560e01c806370a08231116100a2578063a22cb46511610071578063a22cb465146102b8578063b88d4fde146102d4578063c87b56dd146102f0578063e985e9c514610320578063f2fde38b146103505761010b565b806370a0823114610242578063715018a6146102725780638da5cb5b1461027c57806395d89b411461029a5761010b565b806323b872dd116100de57806323b872dd146101aa57806342842e0e146101c657806349f708ff146101e25780636352211e146102125761010b565b806301ffc9a71461011057806306fdde0314610140578063081812fc1461015e578063095ea7b31461018e575b600080fd5b61012a60048036038101906101259190611f8b565b61036c565b6040516101379190611fd3565b60405180910390f35b61014861044e565b6040516101559190612087565b60405180910390f35b610178600480360381019061017391906120df565b6104e0565b604051610185919061214d565b60405180910390f35b6101a860048036038101906101a39190612194565b610526565b005b6101c460048036038101906101bf91906121d4565b61063e565b005b6101e060048036038101906101db91906121d4565b61069e565b005b6101fc60048036038101906101f79190612392565b6106be565b6040516102099190612424565b60405180910390f35b61022c600480360381019061022791906120df565b6107a0565b604051610239919061214d565b60405180910390f35b61025c6004803603810190610257919061243f565b610827565b6040516102699190612424565b60405180910390f35b61027a6108df565b005b6102846108f3565b604051610291919061214d565b60405180910390f35b6102a261091d565b6040516102af9190612087565b60405180910390f35b6102d260048036038101906102cd9190612498565b6109af565b005b6102ee60048036038101906102e991906124d8565b6109c5565b005b61030a600480360381019061030591906120df565b610a27565b6040516103179190612087565b60405180910390f35b61033a6004803603810190610335919061255b565b610a39565b6040516103479190611fd3565b60405180910390f35b61036a6004803603810190610365919061243f565b610acd565b005b60007f80ac58cd000000000000000000000000000000000000000000000000000000007bffffffffffffffffffffffffffffffffffffffffffffffffffffffff1916827bffffffffffffffffffffffffffffffffffffffffffffffffffffffff1916148061043757507f5b5e139f000000000000000000000000000000000000000000000000000000007bffffffffffffffffffffffffffffffffffffffffffffffffffffffff1916827bffffffffffffffffffffffffffffffffffffffffffffffffffffffff1916145b80610447575061044682610b51565b5b9050919050565b60606000805461045d906125ca565b80601f0160208091040260200160405190810160405280929190818152602001828054610489906125ca565b80156104d65780601f106104ab576101008083540402835291602001916104d6565b820191906000526020600020905b8154815290600101906020018083116104b957829003601f168201915b5050505050905090565b60006104eb82610bbb565b6004600083815260200190815260200160002060009054906101000a900473ffffffffffffffffffffffffffffffffffffffff169050919050565b6000610531826107a0565b90508073ffffffffffffffffffffffffffffffffffffffff168373ffffffffffffffffffffffffffffffffffffffff1614156105a2576040517f08c379a00000000000000000000000000000000000000000000000000000000081526004016105999061266e565b60405180910390fd5b8073ffffffffffffffffffffffffffffffffffffffff166105c1610c06565b73ffffffffffffffffffffffffffffffffffffffff1614806105f057506105ef816105ea610c06565b610a39565b5b61062f576040517f08c379a000000000000000000000000000000000000000000000000000000000815260040161062690612700565b60405180910390fd5b6106398383610c0e565b505050565b61064f610649610c06565b82610cc7565b61068e576040517f08c379a000000000000000000000000000000000000000000000000000000000815260040161068590612792565b60405180910390fd5b610699838383610d5c565b505050565b6106b9838383604051806020016040528060008152506109c5565b505050565b60006106ca8383611056565b610709576040517f08c379a000000000000000000000000000000000000000000000000000000000815260040161070090612824565b60405180910390fd5b60058414806107185750600a84145b61072157600080fd5b61072b6008611130565b60006040518060600160405280603681526020016130d460369139905060006107546008611146565b90506107608782611154565b610793818361076e89611372565b60405160200161077f929190612880565b60405160208183030381529060405261144a565b8092505050949350505050565b6000806107ac836114be565b9050600073ffffffffffffffffffffffffffffffffffffffff168173ffffffffffffffffffffffffffffffffffffffff16141561081e576040517f08c379a0000000000000000000000000000000000000000000000000000000008152600401610815906128f0565b60405180910390fd5b80915050919050565b60008073ffffffffffffffffffffffffffffffffffffffff168273ffffffffffffffffffffffffffffffffffffffff161415610898576040517f08c379a000000000000000000000000000000000000000000000000000000000815260040161088f90612982565b60405180910390fd5b600360008373ffffffffffffffffffffffffffffffffffffffff1673ffffffffffffffffffffffffffffffffffffffff168152602001908152602001600020549050919050565b6108e76114fb565b6108f16000611579565b565b6000600760009054906101000a900473ffffffffffffffffffffffffffffffffffffffff16905090565b60606001805461092c906125ca565b80601f0160208091040260200160405190810160405280929190818152602001828054610958906125ca565b80156109a55780601f1061097a576101008083540402835291602001916109a5565b820191906000526020600020905b81548152906001019060200180831161098857829003601f168201915b5050505050905090565b6109c16109ba610c06565b838361163f565b5050565b6109d66109d0610c06565b83610cc7565b610a15576040517f08c379a0000000000000000000000000000000000000000000000000000000008152600401610a0c90612792565b60405180910390fd5b610a21848484846117ac565b50505050565b6060610a3282611808565b9050919050565b6000600560008473ffffffffffffffffffffffffffffffffffffffff1673ffffffffffffffffffffffffffffffffffffffff16815260200190815260200160002060008373ffffffffffffffffffffffffffffffffffffffff1673ffffffffffffffffffffffffffffffffffffffff16815260200190815260200160002060009054906101000a900460ff16905092915050565b610ad56114fb565b600073ffffffffffffffffffffffffffffffffffffffff168173ffffffffffffffffffffffffffffffffffffffff161415610b45576040517f08c379a0000000000000000000000000000000000000000000000000000000008152600401610b3c90612a14565b60405180910390fd5b610b4e81611579565b50565b60007f01ffc9a7000000000000000000000000000000000000000000000000000000007bffffffffffffffffffffffffffffffffffffffffffffffffffffffff1916827bffffffffffffffffffffffffffffffffffffffffffffffffffffffff1916149050919050565b610bc48161191b565b610c03576040517f08c379a0000000000000000000000000000000000000000000000000000000008152600401610bfa906128f0565b60405180910390fd5b50565b600033905090565b816004600083815260200190815260200160002060006101000a81548173ffffffffffffffffffffffffffffffffffffffff021916908373ffffffffffffffffffffffffffffffffffffffff160217905550808273ffffffffffffffffffffffffffffffffffffffff16610c81836107a0565b73ffffffffffffffffffffffffffffffffffffffff167f8c5be1e5ebec7d5bd14f71427d1e84f3dd0314c0f7b2291e5b200ac8c7c3b92560405160405180910390a45050565b600080610cd3836107a0565b90508073ffffffffffffffffffffffffffffffffffffffff168473ffffffffffffffffffffffffffffffffffffffff161480610d155750610d148185610a39565b5b80610d5357508373ffffffffffffffffffffffffffffffffffffffff16610d3b846104e0565b73ffffffffffffffffffffffffffffffffffffffff16145b91505092915050565b8273ffffffffffffffffffffffffffffffffffffffff16610d7c826107a0565b73ffffffffffffffffffffffffffffffffffffffff1614610dd2576040517f08c379a0000000000000000000000000000000000000000000000000000000008152600401610dc990612aa6565b60405180910390fd5b600073ffffffffffffffffffffffffffffffffffffffff168273ffffffffffffffffffffffffffffffffffffffff161415610e42576040517f08c379a0000000000000000000000000000000000000000000000000000000008152600401610e3990612b38565b60405180910390fd5b610e4f838383600161195c565b8273ffffffffffffffffffffffffffffffffffffffff16610e6f826107a0565b73ffffffffffffffffffffffffffffffffffffffff1614610ec5576040517f08c379a0000000000000000000000000000000000000000000000000000000008152600401610ebc90612aa6565b60405180910390fd5b6004600082815260200190815260200160002060006101000a81549073ffffffffffffffffffffffffffffffffffffffff02191690556001600360008573ffffffffffffffffffffffffffffffffffffffff1673ffffffffffffffffffffffffffffffffffffffff168152602001908152602001600020600082825403925050819055506001600360008473ffffffffffffffffffffffffffffffffffffffff1673ffffffffffffffffffffffffffffffffffffffff16815260200190815260200160002060008282540192505081905550816002600083815260200190815260200160002060006101000a81548173ffffffffffffffffffffffffffffffffffffffff021916908373ffffffffffffffffffffffffffffffffffffffff160217905550808273ffffffffffffffffffffffffffffffffffffffff168473ffffffffffffffffffffffffffffffffffffffff167fddf252ad1be2c89b69c2b068fc378daa952ba7f163c4a11628f55a4df523b3ef60405160405180910390a46110518383836001611a82565b505050565b60008060008061106585611a88565b9250925092506000600187838686604051600081526020016040526040516110909493929190612b83565b6020604051602081039080840390855afa1580156110b2573d6000803e3d6000fd5b505050602060405103519050600960009054906101000a900473ffffffffffffffffffffffffffffffffffffffff1673ffffffffffffffffffffffffffffffffffffffff168173ffffffffffffffffffffffffffffffffffffffff16141561112157600194505050505061112a565b60009450505050505b92915050565b6001816000016000828254019250508190555050565b600081600001549050919050565b600073ffffffffffffffffffffffffffffffffffffffff168273ffffffffffffffffffffffffffffffffffffffff1614156111c4576040517f08c379a00000000000000000000000000000000000000000000000000000000081526004016111bb90612c14565b60405180910390fd5b6111cd8161191b565b1561120d576040517f08c379a000000000000000000000000000000000000000000000000000000000815260040161120490612c80565b60405180910390fd5b61121b60008383600161195c565b6112248161191b565b15611264576040517f08c379a000000000000000000000000000000000000000000000000000000000815260040161125b90612c80565b60405180910390fd5b6001600360008473ffffffffffffffffffffffffffffffffffffffff1673ffffffffffffffffffffffffffffffffffffffff16815260200190815260200160002060008282540192505081905550816002600083815260200190815260200160002060006101000a81548173ffffffffffffffffffffffffffffffffffffffff021916908373ffffffffffffffffffffffffffffffffffffffff160217905550808273ffffffffffffffffffffffffffffffffffffffff16600073ffffffffffffffffffffffffffffffffffffffff167fddf252ad1be2c89b69c2b068fc378daa952ba7f163c4a11628f55a4df523b3ef60405160405180910390a461136e600083836001611a82565b5050565b60606000600161138184611af0565b01905060008167ffffffffffffffff8111156113a05761139f612267565b5b6040519080825280601f01601f1916602001820160405280156113d25781602001600182028036833780820191505090505b509050600082602001820190505b60011561143f578080600190039150507f3031323334353637383961626364656600000000000000000000000000000000600a86061a8153600a858161142957611428612ca0565b5b049450600085141561143a5761143f565b6113e0565b819350505050919050565b6114538261191b565b611492576040517f08c379a000000000000000000000000000000000000000000000000000000000815260040161148990612d41565b60405180910390fd5b806006600084815260200190815260200160002090805190602001906114b9929190611e7c565b505050565b60006002600083815260200190815260200160002060009054906101000a900473ffffffffffffffffffffffffffffffffffffffff169050919050565b611503610c06565b73ffffffffffffffffffffffffffffffffffffffff166115216108f3565b73ffffffffffffffffffffffffffffffffffffffff1614611577576040517f08c379a000000000000000000000000000000000000000000000000000000000815260040161156e90612dad565b60405180910390fd5b565b6000600760009054906101000a900473ffffffffffffffffffffffffffffffffffffffff16905081600760006101000a81548173ffffffffffffffffffffffffffffffffffffffff021916908373ffffffffffffffffffffffffffffffffffffffff1602179055508173ffffffffffffffffffffffffffffffffffffffff168173ffffffffffffffffffffffffffffffffffffffff167f8be0079c531659141344cd1fd0a4f28419497f9722a3daafe3b4186f6b6457e060405160405180910390a35050565b8173ffffffffffffffffffffffffffffffffffffffff168373ffffffffffffffffffffffffffffffffffffffff1614156116ae576040517f08c379a00000000000000000000000000000000000000000000000000000000081526004016116a590612e19565b60405180910390fd5b80600560008573ffffffffffffffffffffffffffffffffffffffff1673ffffffffffffffffffffffffffffffffffffffff16815260200190815260200160002060008473ffffffffffffffffffffffffffffffffffffffff1673ffffffffffffffffffffffffffffffffffffffff16815260200190815260200160002060006101000a81548160ff0219169083151502179055508173ffffffffffffffffffffffffffffffffffffffff168373ffffffffffffffffffffffffffffffffffffffff167f17307eab39ab6107e8899845ad3d59bd9653f200f220920489ca2b5937696c318360405161179f9190611fd3565b60405180910390a3505050565b6117b7848484610d5c565b6117c384848484611c43565b611802576040517f08c379a00000000000000000000000000000000000000000000000000000000081526004016117f990612eab565b60405180910390fd5b50505050565b606061181382610bbb565b6000600660008481526020019081526020016000208054611833906125ca565b80601f016020809104026020016040519081016040528092919081815260200182805461185f906125ca565b80156118ac5780601f10611881576101008083540402835291602001916118ac565b820191906000526020600020905b81548152906001019060200180831161188f57829003601f168201915b5050505050905060006118bd611dda565b90506000815114156118d3578192505050611916565b6000825111156119085780826040516020016118f0929190612880565b60405160208183030381529060405292505050611916565b61191184611df1565b925050505b919050565b60008073ffffffffffffffffffffffffffffffffffffffff1661193d836114be565b73ffffffffffffffffffffffffffffffffffffffff1614159050919050565b6001811115611a7c57600073ffffffffffffffffffffffffffffffffffffffff168473ffffffffffffffffffffffffffffffffffffffff16146119f05780600360008673ffffffffffffffffffffffffffffffffffffffff1673ffffffffffffffffffffffffffffffffffffffff16815260200190815260200160002060008282546119e89190612efa565b925050819055505b600073ffffffffffffffffffffffffffffffffffffffff168373ffffffffffffffffffffffffffffffffffffffff1614611a7b5780600360008573ffffffffffffffffffffffffffffffffffffffff1673ffffffffffffffffffffffffffffffffffffffff1681526020019081526020016000206000828254611a739190612f2e565b925050819055505b5b50505050565b50505050565b60008060006041845114611ad1576040517f08c379a0000000000000000000000000000000000000000000000000000000008152600401611ac890612fd0565b60405180910390fd5b6020840151925060408401519150606084015160001a90509193909250565b600080600090507a184f03e93ff9f4daa797ed6e38ed64bf6a1f0100000000000000008310611b4e577a184f03e93ff9f4daa797ed6e38ed64bf6a1f0100000000000000008381611b4457611b43612ca0565b5b0492506040810190505b6d04ee2d6d415b85acef81000000008310611b8b576d04ee2d6d415b85acef81000000008381611b8157611b80612ca0565b5b0492506020810190505b662386f26fc100008310611bba57662386f26fc100008381611bb057611baf612ca0565b5b0492506010810190505b6305f5e1008310611be3576305f5e1008381611bd957611bd8612ca0565b5b0492506008810190505b6127108310611c08576127108381611bfe57611bfd612ca0565b5b0492506004810190505b60648310611c2b5760648381611c2157611c20612ca0565b5b0492506002810190505b600a8310611c3a576001810190505b80915050919050565b6000611c648473ffffffffffffffffffffffffffffffffffffffff16611e59565b15611dcd578373ffffffffffffffffffffffffffffffffffffffff1663150b7a02611c8d610c06565b8786866040518563ffffffff1660e01b8152600401611caf9493929190613045565b602060405180830381600087803b158015611cc957600080fd5b505af1925050508015611cfa57506040513d601f19601f82011682018060405250810190611cf791906130a6565b60015b611d7d573d8060008114611d2a576040519150601f19603f3d011682016040523d82523d6000602084013e611d2f565b606091505b50600081511415611d75576040517f08c379a0000000000000000000000000000000000000000000000000000000008152600401611d6c90612eab565b60405180910390fd5b805181602001fd5b63150b7a0260e01b7bffffffffffffffffffffffffffffffffffffffffffffffffffffffff1916817bffffffffffffffffffffffffffffffffffffffffffffffffffffffff191614915050611dd2565b600190505b949350505050565b606060405180602001604052806000815250905090565b6060611dfc82610bbb565b6000611e06611dda565b90506000815111611e265760405180602001604052806000815250611e51565b80611e3084611372565b604051602001611e41929190612880565b6040516020818303038152906040525b915050919050565b6000808273ffffffffffffffffffffffffffffffffffffffff163b119050919050565b828054611e88906125ca565b90600052602060002090601f016020900481019282611eaa5760008555611ef1565b82601f10611ec357805160ff1916838001178555611ef1565b82800160010185558215611ef1579182015b82811115611ef0578251825591602001919060010190611ed5565b5b509050611efe9190611f02565b5090565b5b80821115611f1b576000816000905550600101611f03565b5090565b6000604051905090565b600080fd5b600080fd5b60007fffffffff0000000000000000000000000000000000000000000000000000000082169050919050565b611f6881611f33565b8114611f7357600080fd5b50565b600081359050611f8581611f5f565b92915050565b600060208284031215611fa157611fa0611f29565b5b6000611faf84828501611f76565b91505092915050565b60008115159050919050565b611fcd81611fb8565b82525050565b6000602082019050611fe86000830184611fc4565b92915050565b600081519050919050565b600082825260208201905092915050565b60005b8381101561202857808201518184015260208101905061200d565b83811115612037576000848401525b50505050565b6000601f19601f8301169050919050565b600061205982611fee565b6120638185611ff9565b935061207381856020860161200a565b61207c8161203d565b840191505092915050565b600060208201905081810360008301526120a1818461204e565b905092915050565b6000819050919050565b6120bc816120a9565b81146120c757600080fd5b50565b6000813590506120d9816120b3565b92915050565b6000602082840312156120f5576120f4611f29565b5b6000612103848285016120ca565b91505092915050565b600073ffffffffffffffffffffffffffffffffffffffff82169050919050565b60006121378261210c565b9050919050565b6121478161212c565b82525050565b6000602082019050612162600083018461213e565b92915050565b6121718161212c565b811461217c57600080fd5b50565b60008135905061218e81612168565b92915050565b600080604083850312156121ab576121aa611f29565b5b60006121b98582860161217f565b92505060206121ca858286016120ca565b9150509250929050565b6000806000606084860312156121ed576121ec611f29565b5b60006121fb8682870161217f565b935050602061220c8682870161217f565b925050604061221d868287016120ca565b9150509250925092565b6000819050919050565b61223a81612227565b811461224557600080fd5b50565b60008135905061225781612231565b92915050565b600080fd5b600080fd5b7f4e487b7100000000000000000000000000000000000000000000000000000000600052604160045260246000fd5b61229f8261203d565b810181811067ffffffffffffffff821117156122be576122bd612267565b5b80604052505050565b60006122d1611f1f565b90506122dd8282612296565b919050565b600067ffffffffffffffff8211156122fd576122fc612267565b5b6123068261203d565b9050602081019050919050565b82818337600083830152505050565b6000612335612330846122e2565b6122c7565b90508281526020810184848401111561235157612350612262565b5b61235c848285612313565b509392505050565b600082601f8301126123795761237861225d565b5b8135612389848260208601612322565b91505092915050565b600080600080608085870312156123ac576123ab611f29565b5b60006123ba8782880161217f565b94505060206123cb878288016120ca565b93505060406123dc87828801612248565b925050606085013567ffffffffffffffff8111156123fd576123fc611f2e565b5b61240987828801612364565b91505092959194509250565b61241e816120a9565b82525050565b60006020820190506124396000830184612415565b92915050565b60006020828403121561245557612454611f29565b5b60006124638482850161217f565b91505092915050565b61247581611fb8565b811461248057600080fd5b50565b6000813590506124928161246c565b92915050565b600080604083850312156124af576124ae611f29565b5b60006124bd8582860161217f565b92505060206124ce85828601612483565b9150509250929050565b600080600080608085870312156124f2576124f1611f29565b5b60006125008782880161217f565b94505060206125118782880161217f565b9350506040612522878288016120ca565b925050606085013567ffffffffffffffff81111561254357612542611f2e565b5b61254f87828801612364565b91505092959194509250565b6000806040838503121561257257612571611f29565b5b60006125808582860161217f565b92505060206125918582860161217f565b9150509250929050565b7f4e487b7100000000000000000000000000000000000000000000000000000000600052602260045260246000fd5b600060028204905060018216806125e257607f821691505b602082108114156125f6576125f561259b565b5b50919050565b7f4552433732313a20617070726f76616c20746f2063757272656e74206f776e6560008201527f7200000000000000000000000000000000000000000000000000000000000000602082015250565b6000612658602183611ff9565b9150612663826125fc565b604082019050919050565b600060208201905081810360008301526126878161264b565b9050919050565b7f4552433732313a20617070726f76652063616c6c6572206973206e6f7420746f60008201527f6b656e206f776e6572206f7220617070726f76656420666f7220616c6c000000602082015250565b60006126ea603d83611ff9565b91506126f58261268e565b604082019050919050565b60006020820190508181036000830152612719816126dd565b9050919050565b7f4552433732313a2063616c6c6572206973206e6f7420746f6b656e206f776e6560008201527f72206f7220617070726f76656400000000000000000000000000000000000000602082015250565b600061277c602d83611ff9565b915061278782612720565b604082019050919050565b600060208201905081810360008301526127ab8161276f565b9050919050565b7f596f7520617265206e6f7420616c6c6f77656420746f2061636365737320746860008201527f697320636f6e7472616374000000000000000000000000000000000000000000602082015250565b600061280e602b83611ff9565b9150612819826127b2565b604082019050919050565b6000602082019050818103600083015261283d81612801565b9050919050565b600081905092915050565b600061285a82611fee565b6128648185612844565b935061287481856020860161200a565b80840191505092915050565b600061288c828561284f565b9150612898828461284f565b91508190509392505050565b7f4552433732313a20696e76616c696420746f6b656e2049440000000000000000600082015250565b60006128da601883611ff9565b91506128e5826128a4565b602082019050919050565b60006020820190508181036000830152612909816128cd565b9050919050565b7f4552433732313a2061646472657373207a65726f206973206e6f74206120766160008201527f6c6964206f776e65720000000000000000000000000000000000000000000000602082015250565b600061296c602983611ff9565b915061297782612910565b604082019050919050565b6000602082019050818103600083015261299b8161295f565b9050919050565b7f4f776e61626c653a206e6577206f776e657220697320746865207a65726f206160008201527f6464726573730000000000000000000000000000000000000000000000000000602082015250565b60006129fe602683611ff9565b9150612a09826129a2565b604082019050919050565b60006020820190508181036000830152612a2d816129f1565b9050919050565b7f4552433732313a207472616e736665722066726f6d20696e636f72726563742060008201527f6f776e6572000000000000000000000000000000000000000000000000000000602082015250565b6000612a90602583611ff9565b9150612a9b82612a34565b604082019050919050565b60006020820190508181036000830152612abf81612a83565b9050919050565b7f4552433732313a207472616e7366657220746f20746865207a65726f2061646460008201527f7265737300000000000000000000000000000000000000000000000000000000602082015250565b6000612b22602483611ff9565b9150612b2d82612ac6565b604082019050919050565b60006020820190508181036000830152612b5181612b15565b9050919050565b612b6181612227565b82525050565b600060ff82169050919050565b612b7d81612b67565b82525050565b6000608082019050612b986000830187612b58565b612ba56020830186612b74565b612bb26040830185612b58565b612bbf6060830184612b58565b95945050505050565b7f4552433732313a206d696e7420746f20746865207a65726f2061646472657373600082015250565b6000612bfe602083611ff9565b9150612c0982612bc8565b602082019050919050565b60006020820190508181036000830152612c2d81612bf1565b9050919050565b7f4552433732313a20746f6b656e20616c7265616479206d696e74656400000000600082015250565b6000612c6a601c83611ff9565b9150612c7582612c34565b602082019050919050565b60006020820190508181036000830152612c9981612c5d565b9050919050565b7f4e487b7100000000000000000000000000000000000000000000000000000000600052601260045260246000fd5b7f45524337323155524953746f726167653a2055524920736574206f66206e6f6e60008201527f6578697374656e7420746f6b656e000000000000000000000000000000000000602082015250565b6000612d2b602e83611ff9565b9150612d3682612ccf565b604082019050919050565b60006020820190508181036000830152612d5a81612d1e565b9050919050565b7f4f776e61626c653a2063616c6c6572206973206e6f7420746865206f776e6572600082015250565b6000612d97602083611ff9565b9150612da282612d61565b602082019050919050565b60006020820190508181036000830152612dc681612d8a565b9050919050565b7f4552433732313a20617070726f766520746f2063616c6c657200000000000000600082015250565b6000612e03601983611ff9565b9150612e0e82612dcd565b602082019050919050565b60006020820190508181036000830152612e3281612df6565b9050919050565b7f4552433732313a207472616e7366657220746f206e6f6e20455243373231526560008201527f63656976657220696d706c656d656e7465720000000000000000000000000000602082015250565b6000612e95603283611ff9565b9150612ea082612e39565b604082019050919050565b60006020820190508181036000830152612ec481612e88565b9050919050565b7f4e487b7100000000000000000000000000000000000000000000000000000000600052601160045260246000fd5b6000612f05826120a9565b9150612f10836120a9565b925082821015612f2357612f22612ecb565b5b828203905092915050565b6000612f39826120a9565b9150612f44836120a9565b9250827fffffffffffffffffffffffffffffffffffffffffffffffffffffffffffffffff03821115612f7957612f78612ecb565b5b828201905092915050565b7f696e76616c6964207369676e6174757265206c656e6774680000000000000000600082015250565b6000612fba601883611ff9565b9150612fc582612f84565b602082019050919050565b60006020820190508181036000830152612fe981612fad565b9050919050565b600081519050919050565b600082825260208201905092915050565b600061301782612ff0565b6130218185612ffb565b935061303181856020860161200a565b61303a8161203d565b840191505092915050565b600060808201905061305a600083018761213e565b613067602083018661213e565b6130746040830185612415565b8181036060830152613086818461300c565b905095945050505050565b6000815190506130a081611f5f565b92915050565b6000602082840312156130bc576130bb611f29565b5b60006130ca84828501613091565b9150509291505056fe697066733a2f2f516d665932765731416f544a6e65446b526e7173474e6d4c6765726a326b6f5a5251634b665856474371744463512fa264697066735822122041b0b6314aa2c08bcc32cb01d7a8fe65436b27a9aa6f38e9ae857ff1835ed3b664736f6c63430008090033",
  "linkReferences": {},
  "deployedLinkReferences": {}
}