{
  "_format": "hh-sol-artifact-1",
  "contractName": "Transactions",
  "sourceName": "contracts/Transactions.sol",
  "abi": [
    {
      "inputs": [
        {
          "internalType": "address",
          "name": "member",
          "type": "address"
        }
      ],
      "name": "addPlayer",
      "outputs": [],
      "stateMutability": "nonpayable",
      "type": "function"
    },
    {
      "inputs": [],
      "name": "deposit",
      "outputs": [],
      "stateMutability": "payable",
      "type": "function"
    },
    {
      "inputs": [
        {
          "internalType": "address",
          "name": "",
          "type": "address"
        },
        {
          "internalType": "uint256",
          "name": "",
          "type": "uint256"
        }
      ],
      "name": "games_history",
      "outputs": [
        {
          "internalType": "string",
          "name": "history_",
          "type": "string"
        },
        {
          "internalType": "uint256",
          "name": "timestamp",
          "type": "uint256"
        },
        {
          "internalType": "address",
          "name": "opponent",
          "type": "address"
        },
        {
          "internalType": "bytes1",
          "name": "symbol",
          "type": "bytes1"
        }
      ],
      "stateMutability": "view",
      "type": "function"
    },
    {
      "inputs": [],
      "name": "getAddress",
      "outputs": [
        {
          "internalType": "address",
          "name": "",
          "type": "address"
        }
      ],
      "stateMutability": "view",
      "type": "function"
    },
    {
      "inputs": [],
      "name": "getAllAddreses",
      "outputs": [
        {
          "internalType": "address[]",
          "name": "",
          "type": "address[]"
        }
      ],
      "stateMutability": "view",
      "type": "function"
    },
    {
      "inputs": [],
      "name": "getBalance",
      "outputs": [
        {
          "internalType": "uint256",
          "name": "",
          "type": "uint256"
        }
      ],
      "stateMutability": "view",
      "type": "function"
    },
    {
      "inputs": [
        {
          "internalType": "address",
          "name": "address_",
          "type": "address"
        }
      ],
      "name": "getGamesHistory",
      "outputs": [
        {
          "components": [
            {
              "internalType": "string",
              "name": "history_",
              "type": "string"
            },
            {
              "internalType": "uint256",
              "name": "timestamp",
              "type": "uint256"
            },
            {
              "internalType": "address",
              "name": "opponent",
              "type": "address"
            },
            {
              "internalType": "bytes1",
              "name": "symbol",
              "type": "bytes1"
            }
          ],
          "internalType": "struct Transactions.History[]",
          "name": "",
          "type": "tuple[]"
        }
      ],
      "stateMutability": "view",
      "type": "function"
    },
    {
      "inputs": [],
      "name": "getUserAddress",
      "outputs": [
        {
          "internalType": "address",
          "name": "",
          "type": "address"
        }
      ],
      "stateMutability": "view",
      "type": "function"
    },
    {
      "inputs": [
        {
          "internalType": "uint256",
          "name": "",
          "type": "uint256"
        }
      ],
      "name": "players",
      "outputs": [
        {
          "internalType": "address",
          "name": "",
          "type": "address"
        }
      ],
      "stateMutability": "view",
      "type": "function"
    },
    {
      "inputs": [
        {
          "internalType": "address payable",
          "name": "_to",
          "type": "address"
        },
        {
          "internalType": "uint256",
          "name": "_amount",
          "type": "uint256"
        },
        {
          "internalType": "string",
          "name": "history_",
          "type": "string"
        },
        {
          "internalType": "bytes1",
          "name": "symbol",
          "type": "bytes1"
        },
        {
          "internalType": "address",
          "name": "opponent",
          "type": "address"
        },
        {
          "internalType": "bytes32",
          "name": "_h",
          "type": "bytes32"
        },
        {
          "internalType": "bytes",
          "name": "_s",
          "type": "bytes"
        }
      ],
      "name": "withdraw",
      "outputs": [],
      "stateMutability": "nonpayable",
      "type": "function"
    }
  ],
  "bytecode": "0x608060405273205d8006383bd92785e29ddaf398d92c65ee70206000806101000a81548173ffffffffffffffffffffffffffffffffffffffff021916908373ffffffffffffffffffffffffffffffffffffffff160217905550600060035534801561006957600080fd5b50611a10806100796000396000f3fe6080604052600436106100915760003560e01c8063cd207faf11610059578063cd207faf14610180578063d0e30db0146101bd578063ebc3eee8146101c7578063f3af7878146101f2578063f71d96cb1461021b57610091565b806312065fe0146100965780631a0dee16146100c157806338cc483114610101578063b1275f9a1461012c578063cc25f48514610155575b600080fd5b3480156100a257600080fd5b506100ab610258565b6040516100b89190610e22565b60405180910390f35b3480156100cd57600080fd5b506100e860048036038101906100e39190610edb565b610260565b6040516100f89493929190610ffe565b60405180910390f35b34801561010d57600080fd5b50610116610362565b604051610123919061104a565b60405180910390f35b34801561013857600080fd5b50610153600480360381019061014e9190611065565b61036a565b005b34801561016157600080fd5b5061016a6103d9565b6040516101779190611150565b60405180910390f35b34801561018c57600080fd5b506101a760048036038101906101a29190611065565b6104d3565b6040516101b491906112ff565b60405180910390f35b6101c56106be565b005b3480156101d357600080fd5b506101dc6106c0565b6040516101e9919061104a565b60405180910390f35b3480156101fe57600080fd5b5061021960048036038101906102149190611597565b6106c8565b005b34801561022757600080fd5b50610242600480360381019061023d9190611671565b6107af565b60405161024f919061104a565b60405180910390f35b600047905090565b6001602052816000526040600020818154811061027c57600080fd5b9060005260206000209060030201600091509150508060000180546102a0906116cd565b80601f01602080910402602001604051908101604052809291908181526020018280546102cc906116cd565b80156103195780601f106102ee57610100808354040283529160200191610319565b820191906000526020600020905b8154815290600101906020018083116102fc57829003601f168201915b5050505050908060010154908060020160009054906101000a900473ffffffffffffffffffffffffffffffffffffffff16908060020160149054906101000a900460f81b905084565b600030905090565b8060026000600354815260200190815260200160002060006101000a81548173ffffffffffffffffffffffffffffffffffffffff021916908373ffffffffffffffffffffffffffffffffffffffff160217905550600360008154809291906103d19061172e565b919050555050565b6060600060035467ffffffffffffffff8111156103f9576103f8611369565b5b6040519080825280602002602001820160405280156104275781602001602082028036833780820191505090505b50905060005b6003548110156104cb576002600082815260200190815260200160002060009054906101000a900473ffffffffffffffffffffffffffffffffffffffff1682828151811061047e5761047d611777565b5b602002602001019073ffffffffffffffffffffffffffffffffffffffff16908173ffffffffffffffffffffffffffffffffffffffff168152505080806104c39061172e565b91505061042d565b508091505090565b6060600160008373ffffffffffffffffffffffffffffffffffffffff1673ffffffffffffffffffffffffffffffffffffffff168152602001908152602001600020805480602002602001604051908101604052809291908181526020016000905b828210156106b35783829060005260206000209060030201604051806080016040529081600082018054610567906116cd565b80601f0160208091040260200160405190810160405280929190818152602001828054610593906116cd565b80156105e05780601f106105b5576101008083540402835291602001916105e0565b820191906000526020600020905b8154815290600101906020018083116105c357829003601f168201915b50505050508152602001600182015481526020016002820160009054906101000a900473ffffffffffffffffffffffffffffffffffffffff1673ffffffffffffffffffffffffffffffffffffffff1673ffffffffffffffffffffffffffffffffffffffff1681526020016002820160149054906101000a900460f81b7effffffffffffffffffffffffffffffffffffffffffffffffffffffffffffff19167effffffffffffffffffffffffffffffffffffffffffffffffffffffffffffff19168152505081526020019060010190610534565b505050509050919050565b565b600033905090565b6106d282826107e2565b610711576040517f08c379a000000000000000000000000000000000000000000000000000000000815260040161070890611818565b60405180910390fd5b854711610753576040517f08c379a000000000000000000000000000000000000000000000000000000000815260040161074a90611884565b60405180910390fd5b8673ffffffffffffffffffffffffffffffffffffffff166108fc879081150290604051600060405180830381858888f19350505050158015610799573d6000803e3d6000fd5b506107a6878685876108ba565b50505050505050565b60026020528060005260406000206000915054906101000a900473ffffffffffffffffffffffffffffffffffffffff1681565b6000806000806107f185610c5d565b92509250925060006001878386866040516000815260200160405260405161081c94939291906118cf565b6020604051602081039080840390855afa15801561083e573d6000803e3d6000fd5b50505060206040510351905060008054906101000a900473ffffffffffffffffffffffffffffffffffffffff1673ffffffffffffffffffffffffffffffffffffffff168173ffffffffffffffffffffffffffffffffffffffff1614156108ab5760019450505050506108b4565b60009450505050505b92915050565b60006103e8426108ca9190611914565b9050600160008673ffffffffffffffffffffffffffffffffffffffff1673ffffffffffffffffffffffffffffffffffffffff16815260200190815260200160002060405180608001604052808681526020018381526020018573ffffffffffffffffffffffffffffffffffffffff168152602001847effffffffffffffffffffffffffffffffffffffffffffffffffffffffffffff1916815250908060018154018082558091505060019003906000526020600020906003020160009091909190915060008201518160000190805190602001906109a9929190610d66565b506020820151816001015560408201518160020160006101000a81548173ffffffffffffffffffffffffffffffffffffffff021916908373ffffffffffffffffffffffffffffffffffffffff16021790555060608201518160020160146101000a81548160ff021916908360f81c02179055505050610a2785610cc5565b610a3557610a348561036a565b5b60007f58000000000000000000000000000000000000000000000000000000000000007effffffffffffffffffffffffffffffffffffffffffffffffffffffffffffff1916837effffffffffffffffffffffffffffffffffffffffffffffffffffffffffffff191614610ac8577f5800000000000000000000000000000000000000000000000000000000000000610aea565b7f4f000000000000000000000000000000000000000000000000000000000000005b9050600160008573ffffffffffffffffffffffffffffffffffffffff1673ffffffffffffffffffffffffffffffffffffffff16815260200190815260200160002060405180608001604052808781526020018481526020018873ffffffffffffffffffffffffffffffffffffffff168152602001837effffffffffffffffffffffffffffffffffffffffffffffffffffffffffffff191681525090806001815401808255809150506001900390600052602060002090600302016000909190919091506000820151816000019080519060200190610bc9929190610d66565b506020820151816001015560408201518160020160006101000a81548173ffffffffffffffffffffffffffffffffffffffff021916908373ffffffffffffffffffffffffffffffffffffffff16021790555060608201518160020160146101000a81548160ff021916908360f81c02179055505050610c4784610cc5565b610c5557610c548461036a565b5b505050505050565b60008060006041845114610ca6576040517f08c379a0000000000000000000000000000000000000000000000000000000008152600401610c9d906119ba565b60405180910390fd5b6020840151925060408401519150606084015160001a90509193909250565b6000806000905060005b600354811015610d5c576002600082815260200190815260200160002060009054906101000a900473ffffffffffffffffffffffffffffffffffffffff1673ffffffffffffffffffffffffffffffffffffffff168473ffffffffffffffffffffffffffffffffffffffff161415610d495760019150610d5c565b8080610d549061172e565b915050610ccf565b5080915050919050565b828054610d72906116cd565b90600052602060002090601f016020900481019282610d945760008555610ddb565b82601f10610dad57805160ff1916838001178555610ddb565b82800160010185558215610ddb579182015b82811115610dda578251825591602001919060010190610dbf565b5b509050610de89190610dec565b5090565b5b80821115610e05576000816000905550600101610ded565b5090565b6000819050919050565b610e1c81610e09565b82525050565b6000602082019050610e376000830184610e13565b92915050565b6000604051905090565b600080fd5b600080fd5b600073ffffffffffffffffffffffffffffffffffffffff82169050919050565b6000610e7c82610e51565b9050919050565b610e8c81610e71565b8114610e9757600080fd5b50565b600081359050610ea981610e83565b92915050565b610eb881610e09565b8114610ec357600080fd5b50565b600081359050610ed581610eaf565b92915050565b60008060408385031215610ef257610ef1610e47565b5b6000610f0085828601610e9a565b9250506020610f1185828601610ec6565b9150509250929050565b600081519050919050565b600082825260208201905092915050565b60005b83811015610f55578082015181840152602081019050610f3a565b83811115610f64576000848401525b50505050565b6000601f19601f8301169050919050565b6000610f8682610f1b565b610f908185610f26565b9350610fa0818560208601610f37565b610fa981610f6a565b840191505092915050565b610fbd81610e71565b82525050565b60007fff0000000000000000000000000000000000000000000000000000000000000082169050919050565b610ff881610fc3565b82525050565b600060808201905081810360008301526110188187610f7b565b90506110276020830186610e13565b6110346040830185610fb4565b6110416060830184610fef565b95945050505050565b600060208201905061105f6000830184610fb4565b92915050565b60006020828403121561107b5761107a610e47565b5b600061108984828501610e9a565b91505092915050565b600081519050919050565b600082825260208201905092915050565b6000819050602082019050919050565b6110c781610e71565b82525050565b60006110d983836110be565b60208301905092915050565b6000602082019050919050565b60006110fd82611092565b611107818561109d565b9350611112836110ae565b8060005b8381101561114357815161112a88826110cd565b9750611135836110e5565b925050600181019050611116565b5085935050505092915050565b6000602082019050818103600083015261116a81846110f2565b905092915050565b600081519050919050565b600082825260208201905092915050565b6000819050602082019050919050565b600082825260208201905092915050565b60006111ba82610f1b565b6111c4818561119e565b93506111d4818560208601610f37565b6111dd81610f6a565b840191505092915050565b6111f181610e09565b82525050565b61120081610fc3565b82525050565b6000608083016000830151848203600086015261122382826111af565b915050602083015161123860208601826111e8565b50604083015161124b60408601826110be565b50606083015161125e60608601826111f7565b508091505092915050565b60006112758383611206565b905092915050565b6000602082019050919050565b600061129582611172565b61129f818561117d565b9350836020820285016112b18561118e565b8060005b858110156112ed57848403895281516112ce8582611269565b94506112d98361127d565b925060208a019950506001810190506112b5565b50829750879550505050505092915050565b60006020820190508181036000830152611319818461128a565b905092915050565b600061132c82610e51565b9050919050565b61133c81611321565b811461134757600080fd5b50565b60008135905061135981611333565b92915050565b600080fd5b600080fd5b7f4e487b7100000000000000000000000000000000000000000000000000000000600052604160045260246000fd5b6113a182610f6a565b810181811067ffffffffffffffff821117156113c0576113bf611369565b5b80604052505050565b60006113d3610e3d565b90506113df8282611398565b919050565b600067ffffffffffffffff8211156113ff576113fe611369565b5b61140882610f6a565b9050602081019050919050565b82818337600083830152505050565b6000611437611432846113e4565b6113c9565b90508281526020810184848401111561145357611452611364565b5b61145e848285611415565b509392505050565b600082601f83011261147b5761147a61135f565b5b813561148b848260208601611424565b91505092915050565b61149d81610fc3565b81146114a857600080fd5b50565b6000813590506114ba81611494565b92915050565b6000819050919050565b6114d3816114c0565b81146114de57600080fd5b50565b6000813590506114f0816114ca565b92915050565b600067ffffffffffffffff82111561151157611510611369565b5b61151a82610f6a565b9050602081019050919050565b600061153a611535846114f6565b6113c9565b90508281526020810184848401111561155657611555611364565b5b611561848285611415565b509392505050565b600082601f83011261157e5761157d61135f565b5b813561158e848260208601611527565b91505092915050565b600080600080600080600060e0888a0312156115b6576115b5610e47565b5b60006115c48a828b0161134a565b97505060206115d58a828b01610ec6565b965050604088013567ffffffffffffffff8111156115f6576115f5610e4c565b5b6116028a828b01611466565b95505060606116138a828b016114ab565b94505060806116248a828b01610e9a565b93505060a06116358a828b016114e1565b92505060c088013567ffffffffffffffff81111561165657611655610e4c565b5b6116628a828b01611569565b91505092959891949750929550565b60006020828403121561168757611686610e47565b5b600061169584828501610ec6565b91505092915050565b7f4e487b7100000000000000000000000000000000000000000000000000000000600052602260045260246000fd5b600060028204905060018216806116e557607f821691505b602082108114156116f9576116f861169e565b5b50919050565b7f4e487b7100000000000000000000000000000000000000000000000000000000600052601160045260246000fd5b600061173982610e09565b91507fffffffffffffffffffffffffffffffffffffffffffffffffffffffffffffffff82141561176c5761176b6116ff565b5b600182019050919050565b7f4e487b7100000000000000000000000000000000000000000000000000000000600052603260045260246000fd5b7f596f7520617265206e6f7420616c6c6f77656420746f2061636365737320746860008201527f697320636f6e7472616374000000000000000000000000000000000000000000602082015250565b6000611802602b83610f26565b915061180d826117a6565b604082019050919050565b60006020820190508181036000830152611831816117f5565b9050919050565b7f696e73756666696369656e7420636f6e74726163742062616c616e6365000000600082015250565b600061186e601d83610f26565b915061187982611838565b602082019050919050565b6000602082019050818103600083015261189d81611861565b9050919050565b6118ad816114c0565b82525050565b600060ff82169050919050565b6118c9816118b3565b82525050565b60006080820190506118e460008301876118a4565b6118f160208301866118c0565b6118fe60408301856118a4565b61190b60608301846118a4565b95945050505050565b600061191f82610e09565b915061192a83610e09565b9250817fffffffffffffffffffffffffffffffffffffffffffffffffffffffffffffffff0483118215151615611963576119626116ff565b5b828202905092915050565b7f696e76616c6964207369676e6174757265206c656e6774680000000000000000600082015250565b60006119a4601883610f26565b91506119af8261196e565b602082019050919050565b600060208201905081810360008301526119d381611997565b905091905056fea264697066735822122065a939015ef4c041dc7a9047a7ba0d1e44db4fc1061fb4f767d9cd2733e02ae864736f6c63430008090033",
  "linkReferences": {},
  "deployedLinkReferences": {}
}