{
  "_format": "hh-sol-artifact-1",
  "contractName": "Transactions",
  "sourceName": "contracts/Transactions.sol",
  "abi": [
    {
      "inputs": [],
      "name": "deposit",
      "outputs": [],
      "stateMutability": "payable",
      "type": "function"
    },
    {
      "inputs": [],
      "name": "getAddress",
      "outputs": [
        {
          "internalType": "address",
          "name": "",
          "type": "address"
        }
      ],
      "stateMutability": "view",
      "type": "function"
    },
    {
      "inputs": [],
      "name": "getBalance",
      "outputs": [
        {
          "internalType": "uint256",
          "name": "",
          "type": "uint256"
        }
      ],
      "stateMutability": "view",
      "type": "function"
    },
    {
      "inputs": [],
      "name": "getUserAddress",
      "outputs": [
        {
          "internalType": "address",
          "name": "",
          "type": "address"
        }
      ],
      "stateMutability": "view",
      "type": "function"
    },
    {
      "inputs": [
        {
          "internalType": "address payable",
          "name": "_to",
          "type": "address"
        },
        {
          "internalType": "uint256",
          "name": "_amount",
          "type": "uint256"
        },
        {
          "internalType": "string",
          "name": "win_history",
          "type": "string"
        },
        {
          "internalType": "bytes32",
          "name": "_h",
          "type": "bytes32"
        },
        {
          "internalType": "bytes",
          "name": "_s",
          "type": "bytes"
        }
      ],
      "name": "withdraw",
      "outputs": [],
      "stateMutability": "nonpayable",
      "type": "function"
    }
  ],
  "bytecode": "0x608060405273205d8006383bd92785e29ddaf398d92c65ee70206000806101000a81548173ffffffffffffffffffffffffffffffffffffffff021916908373ffffffffffffffffffffffffffffffffffffffff16021790555034801561006457600080fd5b50610935806100746000396000f3fe60806040526004361061004a5760003560e01c806312065fe01461004f57806338cc48311461007a578063ac7792b6146100a5578063d0e30db0146100ce578063ebc3eee8146100d8575b600080fd5b34801561005b57600080fd5b50610064610103565b604051610071919061034f565b60405180910390f35b34801561008657600080fd5b5061008f61010b565b60405161009c91906103ab565b60405180910390f35b3480156100b157600080fd5b506100cc60048036038101906100c79190610661565b610113565b005b6100d66101ec565b005b3480156100e457600080fd5b506100ed6101ee565b6040516100fa91906103ab565b60405180910390f35b600047905090565b600030905090565b61011d82826101f6565b61015c576040517f08c379a000000000000000000000000000000000000000000000000000000000815260040161015390610797565b60405180910390fd5b83471161019e576040517f08c379a000000000000000000000000000000000000000000000000000000000815260040161019590610803565b60405180910390fd5b8473ffffffffffffffffffffffffffffffffffffffff166108fc859081150290604051600060405180830381858888f193505050501580156101e4573d6000803e3d6000fd5b505050505050565b565b600033905090565b600080600080610205856102ce565b925092509250600060018783868660405160008152602001604052604051610230949392919061084e565b6020604051602081039080840390855afa158015610252573d6000803e3d6000fd5b50505060206040510351905060008054906101000a900473ffffffffffffffffffffffffffffffffffffffff1673ffffffffffffffffffffffffffffffffffffffff168173ffffffffffffffffffffffffffffffffffffffff1614156102bf5760019450505050506102c8565b60009450505050505b92915050565b60008060006041845114610317576040517f08c379a000000000000000000000000000000000000000000000000000000000815260040161030e906108df565b60405180910390fd5b6020840151925060408401519150606084015160001a90509193909250565b6000819050919050565b61034981610336565b82525050565b60006020820190506103646000830184610340565b92915050565b600073ffffffffffffffffffffffffffffffffffffffff82169050919050565b60006103958261036a565b9050919050565b6103a58161038a565b82525050565b60006020820190506103c0600083018461039c565b92915050565b6000604051905090565b600080fd5b600080fd5b60006103e58261036a565b9050919050565b6103f5816103da565b811461040057600080fd5b50565b600081359050610412816103ec565b92915050565b61042181610336565b811461042c57600080fd5b50565b60008135905061043e81610418565b92915050565b600080fd5b600080fd5b6000601f19601f8301169050919050565b7f4e487b7100000000000000000000000000000000000000000000000000000000600052604160045260246000fd5b6104978261044e565b810181811067ffffffffffffffff821117156104b6576104b561045f565b5b80604052505050565b60006104c96103c6565b90506104d5828261048e565b919050565b600067ffffffffffffffff8211156104f5576104f461045f565b5b6104fe8261044e565b9050602081019050919050565b82818337600083830152505050565b600061052d610528846104da565b6104bf565b90508281526020810184848401111561054957610548610449565b5b61055484828561050b565b509392505050565b600082601f83011261057157610570610444565b5b813561058184826020860161051a565b91505092915050565b6000819050919050565b61059d8161058a565b81146105a857600080fd5b50565b6000813590506105ba81610594565b92915050565b600067ffffffffffffffff8211156105db576105da61045f565b5b6105e48261044e565b9050602081019050919050565b60006106046105ff846105c0565b6104bf565b9050828152602081018484840111156106205761061f610449565b5b61062b84828561050b565b509392505050565b600082601f83011261064857610647610444565b5b81356106588482602086016105f1565b91505092915050565b600080600080600060a0868803121561067d5761067c6103d0565b5b600061068b88828901610403565b955050602061069c8882890161042f565b945050604086013567ffffffffffffffff8111156106bd576106bc6103d5565b5b6106c98882890161055c565b93505060606106da888289016105ab565b925050608086013567ffffffffffffffff8111156106fb576106fa6103d5565b5b61070788828901610633565b9150509295509295909350565b600082825260208201905092915050565b7f596f7520617265206e6f7420616c6c6f77656420746f2061636365737320746860008201527f697320636f6e7472616374000000000000000000000000000000000000000000602082015250565b6000610781602b83610714565b915061078c82610725565b604082019050919050565b600060208201905081810360008301526107b081610774565b9050919050565b7f696e73756666696369656e7420636f6e74726163742062616c616e6365000000600082015250565b60006107ed601d83610714565b91506107f8826107b7565b602082019050919050565b6000602082019050818103600083015261081c816107e0565b9050919050565b61082c8161058a565b82525050565b600060ff82169050919050565b61084881610832565b82525050565b60006080820190506108636000830187610823565b610870602083018661083f565b61087d6040830185610823565b61088a6060830184610823565b95945050505050565b7f696e76616c6964207369676e6174757265206c656e6774680000000000000000600082015250565b60006108c9601883610714565b91506108d482610893565b602082019050919050565b600060208201905081810360008301526108f8816108bc565b905091905056fea264697066735822122025f9144379fc9b0cc8d5fd2f8edd6525660aa35c266beb9a5ce5d65c1640471564736f6c63430008090033",
  "linkReferences": {},
  "deployedLinkReferences": {}
}